S02400004672656552544F535F466F725F4D656761333238705F73747564696F2E73726563D3
S11300000C9434000C9451000C9451000C94510045
S11300100C9451000C9451000C9451000C94510018
S11300200C9451000C9451000C9451000C94E20671
S11300300C9451000C9451000C9451000C945100F8
S11300400C9451000C9451000C9491010C94D10126
S11300500C9451000C9451000C9451000C945100D8
S11300600C9451000C94510011241FBECFEFD8E022
S1130070DEBFCDBF11E0A0E0B1E0E6E2F2E202C0F3
S113008005900D92A633B107D9F727E0A6E3B1E0B6
S113009001C01D92A33DB207E1F70E94D3000C9466
S11300A011110C940000E4E6F0E080818E7F8083DF
S11300B010927C0081E880937A0010927B00109269
S11300C07E0080E00895ECE7F0E09081907F9083DB
S11300D09081892B8083EAE7F0E0808180648083CB
S11300E0089580917A0082958170089580917800B6
S11300F02091790090E0922B08950E9463000E9461
S113010071008823E1F30E947600EAE7F0E02081A1
S11301102061208308950F931F93CF93DF9361157C
S1130120710571F08C01EC01060F171F699140E015
S113013050E080E090E00E947401C017D107B1F74D
S1130140DF91CF911F910F9108950E94530044E6CF
S113015060E076E980E090E00E94200102E011E096
S1130160C6E3D1E084EF91E00E94A80C80E00E94F5
S11301707D009F938F931F930F93DF93CF930E94E0
S1130180270EFE0101900020E9F73197BF01665365
S11301907140CE010E948B000F900F900F900F9032
S11301A00F900F90DFCFEF92FF920F930E94F30016
S11301B0E12CF12C02E020E030E045E550E068E17C
S11301C071E085EA90E00E942C0A83E00E94BD025F
S11301D00E94340B80E090E00F91FF90EF9008951F
S11301E00E949E0308958FEF8093000184B980914B
S11301F0000185B90895CF93DF938830F0F4C1E00E
S1130200D0E002C0CC0FDD1F8A95E2F70E945E0B9E
S1130210809100018C2339F080910001C095C8239E
S1130220C093000105C080910001C82BC093000158
S11302308091000185B90E94290CDF91CF91089526
S1130240CF92DF92EF92FF92CF936B017C01C42F88
S11302500FB6F8940F9240E061E08C2F0E940808DA
S1130260909359018093580140E061E08C2F0E94E3
S113027008089093570180935601D701C601880F4F
S1130280991FAA1FBB1F880F991FAA1FBB1F9C0180
S1130290AD01220F331F441F551F220F331F441F6C
S11302A0551F60E074E284EF90E00E94FC0DDA01D7
S11302B0C9010197A109B1098093C400892F9A2F1C
S11302C0AB2FBB278093C50088E98093C10086E0EB
S11302D08093C2000F900FBE80E090E0CF91FF901A
S11302E0EF90DF90CF900895CF93DF931F92CDB717
S11302F0DEB7698320E0BE016F5F7F4F80915601B6
S1130300909157010E943508813031F4E1ECF0E01E
S113031090819062908301C080E00F90DF91CF9133
S113032008951F920F920FB60F9211242F933F93AB
S11303304F935F936F937F938F939F93AF93BF93E9
S1130340EF93FF93CF93DF9300D0CDB7DEB71A823C
S11303508091C600898320E0AE014E5F5F4FBE01ED
S11303606F5F7F4F80915801909159010E94D60888
S11303708A8181110E942D060F900F90DF91CF91F9
S1130380FF91EF91BF91AF919F918F917F916F9169
S11303905F914F913F912F910F900FBE0F901F903F
S11303A018951F920F920FB60F9211242F933F931B
S11303B04F935F936F937F938F939F93AF93BF9369
S11303C0EF93FF93CF93DF9300D0CDB7DEB7AE01A9
S11303D04E5F5F4FBE016F5F7F4F809156019091DA
S11303E057010E941009813021F489818093C6004D
S11303F005C0E1ECF0E080818F7D80830F900F9049
S1130400DF91CF91FF91EF91BF91AF919F918F9128
S11304107F916F915F914F913F912F910F900FBEFC
S11304200F901F9018950F931F93CF93DF931F92F4
S1130430CDB7DEB78C01FC01808D918D823CF1E05B
S11304409F07C9F0833C21E0920741F1892B81F594
S11304504FEF5FEFBE016F5F7F4F80915A01909124
S11304605B010E9480098C3F89F482EC91E0F801E1
S1130470918F808F1DC040E050E0BE016F5F7F4FC1
S113048080915A0190915B010E9480098B3F39F45D
S113049083EC91E0F801918F808F0AC081E0813074
S11304A019F010920101D4CF89810E94FB00D0CFB2
S11304B00F90DF91CF911F910F9108950F931F9388
S11304C0CF93DF931F92CDB7DEB78C016983FC0114
S11304D0808D918D8238F1E09F07F1F018F4892B1B
S11304E041F045C08338E1E09E0749F186399140E7
S11304F0F1F540E050E0BE016F5F7F4F80915A01FB
S113050090915B010E9447098C3F89F482E891E055
S1130510F801918F808F2BC040E050E0BE016F5FE7
S11305207F4F80915A0190915B010E9447098B3F54
S113053039F483E891E0F801918F808F18C081E04D
S1130540813011F010920101E981F0E0EE0FFF1FFC
S1130550E05EFE4F80819181009721F060E070E0C1
S11305600E945B0386E991E0F801918F808F0F90E0
S1130570DF91CF911F910F910895CF93DF93D82FDF
S1130580893008F0D8E040E061E081E00E9408088A
S113059090935B0180935A01892B91F0DD2351F0F4
S11305A0C0E04C2F60E08EE592E00E94E302CF5F52
S11305B0DC13F7CF40E061E083E192E00E94E302C4
S11305C0DF91CF910895CF92DF92EF92FF921F9324
S11305D0CF93DF936C01162FF42E8AE190E00E94F2
S11305E0E506EC01892B09F45DC0809163019091CB
S11305F06401892B21F5D0936401C093630184E8DD
S113060091E00E94FD048DE891E00E94FD048BE7D7
S113061091E00E94FD0482E791E00E94FD0485E6DA
S113062091E00E94FD048BE791E090937101809327
S1130630700182E791E090936F0180936E01111134
S113064011E0198E188E1E8BFF8AFE01C192D19281
S11306507F01CF010E940B05CE010C960E940B0571
S1130660D987C887DB8BCA8B82E090E0811B910914
S11306709D878C878E8990916201981710F48093DE
S1130680620190E09C01220F331F220F331F220FBF
S1130690331F820F931FB7018C579E4F0E940F0583
S11306A081E001C08FEFDF91CF911F91FF90EF9018
S11306B0DF90CF9008950F931F93CF93DF938B0117
S11306C0C0916001D0916101C80FD91F809163016D
S11306D09091640102960E946105E0916301F0919A
S11306E06401D383C2838091600190916101C81732
S11306F0D90750F4BF016E5F7F4F80916E019091D6
S11307006F010E94300509C0BF016E5F7F4F809169
S11307107001909171010E9430050115110549F095
S11307206091630170916401645F7F4FC8010E940E
S11307303005DF91CF911F910F910895EF92FF92B1
S11307400F931F93CF93DF9380916501882399F1D1
S11307500F2EF5E6EF2EF1E0FF2EF02DF894D701E1
S11307601596ED91FC911697C681D781CE010C9612
S11307700E94610578948E010E5F1F4FC8010E948C
S113078061058E8990916201981710F4809362013B
S113079090E09C01220F331F220F331F220F331FBF
S11307A0820F931FB8018C579E4F0E940F05F701CB
S11307B080818111D3CF0E94640B20915E0130911E
S11307C05F01821B930B90935D0180935C016FC06A
S11307D080916001909161010196909361018093F1
S11307E060012150310930935D0120935C01009731
S11307F081F4209170013091710140916E0150910A
S11308006F01509371014093700130936F012093F5
S11308106E01E0917001F09171012081222309F4AD
S113082046C00580F681E02DC681D7812A813B81AF
S11308308217930778F43BC00580F681E02DC681CA
S1130840D7812A813B818091600190916101821757
S1130850930768F1F8948E010E5F1F4FC8010E9440
S113086061058C899D89892B21F0CE010C960E940B
S1130870610578948E8990916201981710F48093A1
S1130880620190E09C01220F331F220F331F220FBD
S1130890331F820F931FB8018C579E4F0E940F0580
S11308A0E0917001F091710180818111C5CF209197
S11308B05C0130915D012115310509F089CF8091EA
S11308C060019091610190935F0180935E0180913A
S11308D06201282F30E0F901EE0FFF1FEE0FFF1F1A
S11308E0EE0FFF1FE20FF31FEC57FE4F90819111A3
S11308F01BC0811106C055C0811103C01092620152
S113090050C08150282F30E0F901EE0FFF1FEE0F89
S1130910FF1FEE0FFF1FE20FF31FEC57FE4F9081F6
S1130920992351F380936201C901880F991F880F9D
S1130930991F880F991F820F931FDC01AC57BE4F7C
S11309401196ED91FC9112970280F381E02D12969D
S1130950FC93EE93119789579E4FE817F90729F4F2
S113096082819381FD0192838183F901EE0FFF1F40
S1130970EE0FFF1FEE0FFF1F2E0F3F1FF901EC5765
S1130980FE4F0180F281E02D86819781909364016E
S113099080936301DC01ED91FC91119757966C9162
S11309A00995DF91CF911F910F91FF90EF900895DA
S11309B00F931F93CF93DF93DC011596ED91FC9178
S11309C01697C681D7818E01045F1F4FC8010E940C
S11309D06105B80185E691E00E940F05E09163018D
S11309E0F091640181E02E899689291708F480E04A
S11309F0DF91CF911F910F910895FC01039692838B
S1130A0081832FEF3FEF34832383968385839087FD
S1130A10878310820895FC01118610860895CF9370
S1130A20DF939C01FB01DC011196CD91DC911297BF
S1130A30D383C2838C819D81958384838C819D81A2
S1130A40DC0113967C936E9312977D836C833187BC
S1130A502087F90180818F5F8083DF91CF91089592
S1130A60CF93DF93EB01488159814F3F2FEF52071A
S1130A7021F4FC01A781B0850DC0DC01139601C0EF
S1130A80DF011296ED91FC91139720813181421779
S1130A905307B0F71296ED91FC911397FB83EA8309
S1130AA0D583C483BD83AC831396DC93CE93129712
S1130AB099878887FC0120812F5F2083DF91CF9164
S1130AC00895CF93DF93FC01A085B185C281D381C2
S1130AD0848195819D838C83C481D5818281938116
S1130AE09B838A8311968D919C911297E817F9073D
S1130AF031F48481958112969C938E93119711867B
S1130B0010868C9181508C93DF91CF91089531E1BF
S1130B10FC013083319722E220833197A3E3A08341
S1130B20319760833197708331971082319760E8F1
S1130B30608331971082319762E06083319763E07C
S1130B406083319764E06083319765E06083319717
S1130B5066E06083319767E06083319768E0608383
S1130B60319769E06083319760E160833197308326
S1130B70319732E13083319733E13083319734E177
S1130B803083319735E13083319736E130833197C3
S1130B9037E13083319738E13083319739E130835D
S1130BA0319730E23083319731E2308331972083BB
S1130BB0319723E2208331974083319750833197D3
S1130BC026E22083319727E22083319728E220838D
S1130BD0319729E22083319720E32083319721E361
S1130BE02083869708951092890089EF8093880066
S1130BF08BE080938100EFE6F0E080818260808367
S1130C00A091D107B091D207CD91CDBFDD91DEBFC8
S1130C10FF91EF91DF91CF91BF91AF919F918F9110
S1130C207F916F915F914F913F912F911F910F9100
S1130C30FF90EF90DF90CF90BF90AF909F908F90F8
S1130C407F906F905F904F903F902F901F900F90E8
S1130C500FBE0F90089581E008950F920FB6F89497
S1130C600F921F9211242F923F924F925F926F9294
S1130C707F928F929F92AF92BF92CF92DF92EF9228
S1130C80FF920F931F932F933F934F935F936F9311
S1130C907F938F939F93AF93BF93CF93DF93EF9300
S1130CA0FF93A091D107B091D2070DB60D920EB665
S1130CB00D920E94FB0CA091D107B091D207CD9167
S1130CC0CDBFDD91DEBFFF91EF91DF91CF91BF9159
S1130CD0AF919F918F917F916F915F914F913F91D0
S1130CE02F911F910F91FF90EF90DF90CF90BF90C5
S1130CF0AF909F908F907F906F905F904F903F90B8
S1130D002F901F900F900FBE0F9008950F920FB663
S1130D10F8940F921F9211242F923F924F925F9258
S1130D206F927F928F929F92AF92BF92CF92DF92F7
S1130D30EF92FF920F931F932F933F934F935F93E1
S1130D406F937F938F939F93AF93BF93CF93DF93CF
S1130D50EF93FF93A091D107B091D2070DB60D92F6
S1130D600EB60D920E946E0B81110E94FB0CA09195
S1130D70D107B091D207CD91CDBFDD91DEBFFF91F8
S1130D80EF91DF91CF91BF91AF919F918F917F911F
S1130D906F915F914F913F912F911F910F91FF9010
S1130DA0EF90DF90CF90BF90AF909F908F907F9007
S1130DB06F905F904F903F902F901F900F900FBEB9
S1130DC00F9008950E9486061895CF93DF93EC0147
S1130DD00E945E0B8091960190919701892B31F4CA
S1130DE08BE991E09093970180939601209198016B
S1130DF030919901C9018C0F9D1F8B3D45E09407EB
S1130E0070F42817390770F4C0919601D0919701B6
S1130E10C20FD31F909399018093980105C0C0E03D
S1130E20D0E002C0C0E0D0E00E94290CCE01DF91E6
S1130E30CF91089508950F931F93CF93DF93EC01FF
S1130E40042F1A8D4C8D4423B9F1011116C050E0C2
S1130E508C819D810E941E0E2C8D8C819D81820F20
S1130E60911D9D838C832A813B818217930720F1F6
S1130E70888199819D838C831FC050E08E819F81DE
S1130E800E941E0E8C8D90E09195819591092E8182
S1130E903F81280F391F3F832E83488159812417AE
S1130EA0350730F42A813B81820F931F9F838E8301
S1130EB0023011F4111111501F5F1A8F80E0DF917D
S1130EC0CF911F910F910895FC01448D4423A9F003
S1130ED050E026813781240F351F37832683828192
S1130EE093812817390720F0808191819783868325
S1130EF0CB01668177810E941E0E0895EF92FF92C6
S1130F000F931F93CF938C010FB6F8940F92FC01AB
S1130F10C68D1C16ACF48189811106C011C0F8017C
S1130F208189811105C00CC07801F1E1EF0EF11C3B
S1130F30C7010E94730D81110E94F80DC15079F709
S1130F408FEFF801868F0F900FBE0FB6F8940F92B3
S1130F50C58D1C16ACF48085811106C011C0F80142
S1130F608085811105C00CC07801F8E0EF0EF11CFA
S1130F70C7010E94730D81110E94F80DC15079F7C9
S1130F808FEFF801858F0F900FBECF911F910F91B6
S1130F90FF90EF900895CF93DF93EC010FB6F89490
S1130FA00F92488159812C8D30E07B8D729FC00156
S1130FB0739F900D1124FA01E80FF91FFB83EA8354
S1130FC01A8E5D834C83821B930B840F951F9F8322
S1130FD08E838FEF8D8F8E8F61110CC0888588234F
S1130FE089F0CE0108960E94730D882359F00E945F
S1130FF02D0608C0CE0108960E94FD04CE0141963C
S11310000E94FD040F900FBE81E0DF91CF910895FF
S11310100F931F93CF93DF93082F162F6623C1F0EE
S1131020869FC00111244F960E94E506EC010097AB
S113103041F415C00B8F1C8F61E0CE010E94CB07D9
S11310400EC04F9699838883F5CFD983C883F2CF96
S11310508FE190E00E94E506EC01892BB1F7CE0107
S1131060DF91CF911F910F9108959F92AF92BF92FC
S1131070CF92DF92EF92FF920F931F93CF93DF9360
S113108000D000D01F92CDB7DEB78C016B015D8319
S11310904C83A22EB12C992493947C0188E0E80E11
S11310A0F11C0FB6F8940F92F801928D838D981766
S11310B018F0F2E0AF1219C04A2DB601C8010E941F
S11310C01B07F8019189992349F0C80141960E94B0
S11310D0730D882331F00E942D0603C081110E94F4
S11310E02D060F900FBE81E050C08C819D81892B0D
S11310F021F40F900FBE80E048C0B11005C0CE01AE
S113110001960E94BB0DB92C0F900FBE0E945E0B7E
S11311100FB6F8940F92F801858D8F3F09F4158E60
S1131120F801868D8F3F09F4168E0F900FBEBE0115
S11311306C5F7F4FCE0101960E94C60D81111FC0C6
S11311400FB6F8940F92F801928D0F900FBE838D15
S113115098130FC06C817D81C7010E94610DC80185
S11311600E947E070E94290C81119BCF0E942D06AC
S113117098CFC8010E947E070E94290C92CFC80113
S11311800E947E070E94290C80E00F900F900F9020
S11311900F900F90DF91CF911F910F91FF90EF90DF
S11311A0DF90CF90BF90AF909F900895EF92FF9201
S11311B00F931F93CF93DF938A01FC01528D338DDC
S11311C0531710F02230F1F4422F7801EC011E8DF8
S11311D00E941B071F3F81F489898823A9F0CE014F
S11311E041960E94730D882389F0E114F10481F083
S11311F081E0F70180830DC0FF24F394F10EFE8E8D
S113120081E007C080E005C081E003C081E001C047
S113121081E0DF91CF911F910F91FF90EF9008959E
S1131220EF92FF920F931F93CF93DF93FC01C28D34
S1131230CC23F9F07A018C01D58D0E946407C1504A
S1131240F801C28FDF3F81F480858823A1F0C801B3
S113125008960E94730D882381F0E114F10479F05B
S113126081E0F70180830CC0DF5FF801D58F81E056
S113127007C080E005C081E003C081E001C081E0D7
S1131280DF91CF911F910F91FF90EF900895CF932D
S1131290DF93EC01F8940FB6F8940F922A8D9B8D8E
S11312A00F900FBE29130FC04115510549F0BE011F
S11312B0685F7F4FCA010E945B0378948CEF1DC066
S11312C0789480E01AC07894F8948A8D891778F419
S11312D040E0CE010E941B078989882351F0CE018A
S11312E041960E94D804882331F08BEF05C080E03A
S11312F003C081E001C081E07894DF91CF9108952B
S1131300CF93DF93EC019B01F8949A8D91110FC058
S11313104115510549F0BE016F5E7F4FCA010E941D
S11313205B0378948CEF32C0789480E02FC078947B
S1131330F8948A8D882321F14C8D50E08E819F8111
S1131340840F951F9F838E836A817B8186179707FD
S113135020F0888199819F838E838A8D81508A8F22
S11313606E817F81C9010E941E0E8885882351F0F9
S1131370CE0108960E94D804882331F08BEF05C073
S113138080E003C081E001C081E07894DF91CF91D7
S11313900895E0919907F0919A078081811107C01F
S11313A08FEF9FEF90937A07809379070895E091E8
S11313B09907F0919A070580F681E02D0680F78160
S11313C0E02D8281938190937A0780937907089521
S11313D00F931F93CF93DF93EC010091810710913A
S11313E082078091D1079091D20702960E946105ED
S11313F0C00FD11FE091D107F091D207D383C283EC
S1131400C017D10768F46091D1077091D207809119
S11314109707909198076E5F7F4F0E94300517C021
S11314206091D1077091D2078091990790919A07A2
S11314306E5F7F4F0E9430058091790790917A0703
S1131440C817D90720F4D0937A07C0937907DF919E
S1131450CF911F910F9108954F925F926F927F9257
S11314608F929F92AF92BF92CF92DF92EF92FF92B0
S11314700F93CF93DF934C016B015A012901CA01E9
S11314800E94E5063C01892B09F4DDC086E290E068
S11314900E94E506EC01892B71F0788E6F8A81E059
S11314A0A81AB108A60CB71CD6018C91898F8C910F
S11314B0811105C018C0C3010E941A07C4C0AE013F
S11314C0465E5F4FF6013196B8E0CB0ED11CCF01DA
S11314D02191DA012D93AD01DC018C91882319F05F
S11314E0EC15FD05A1F718A2043008F003E00E8BFB
S11314F06E01B2E0CB0ED11CC6010E940B05CE01D9
S11315000C960E940B05D987C88784E090E0801B65
S113151091099D878C87DB8BCA8B19A21AA21BA207
S11315201CA21DA2A201B401C5010E9487059983D2
S11315308883E114F10419F0F701D183C0830FB655
S1131540F8940F92809183078F5F80938307809133
S1131550D1079091D207892BA9F5D093D207C093D4
S1131560D107809183078130E9F58DEA97E00E94E5
S1131570FD0486EB97E00E94FD048FEB97E00E9448
S1131580FD0488EC97E00E94FD0484EA97E00E9441
S1131590FD048BE997E00E94FD048EE897E00E9429
S11315A0FD0485E897E00E94FD0484EA97E09093A7
S11315B09A07809399078BE997E090939807809313
S11315C0970710C080917F0781110CC0E091D1076B
S11315D0F091D20796898E89891720F0D093D2078B
S11315E0C093D10780917B078F5F80937B078E899F
S11315F090918007981710F48093800790E09C01E5
S1131600220F331F220F331F220F331F820F931F0A
S1131610B6018355984F0E940F050F900FBE80911D
S11316207F07882361F0E091D107F091D207968972
S11316308E89981730F40E942D0681E005C081E060
S113164003C081E001C08FEFDF91CF910F91FF9034
S1131650EF90DF90CF90BF90AF909F908F907F904E
S11316606F905F904F900895EF92FF920F930F2E1B
S1131670F7E7EF2EF7E0FF2EF02D00E020E030E05A
S113168045E550E060E371E08CEB9CE00E942C0A9D
S1131690813081F4F8948FEF9FEF90937A078093D1
S11316A0790781E080937F07109282071092810767
S11316B00E94F3050F91FF90EF90089580917607B3
S11316C08F5F8093760708950FB6F8940F928091F8
S11316D08107909182070F900FBE0895CF92DF92F9
S11316E0EF92FF920F931F93CF93DF93809176072E
S11316F0811199C0E0908107F09082078FEFE81A7A
S1131700F80AF0928207E0928107E114F104B9F437
S11317108091990790919A072091970730919807A3
S113172030939A072093990790939807809397078B
S113173080917C078F5F80937C070E94C909809108
S1131740790790917A07E816F90610F4D12C53C062
S1131750D12CCC24C394E0919907F0919A0780810D
S1131760811107C08FEF9FEF90937A0780937907D9
S113177042C0E0919907F0919A070580F681E02D27
S1131780C681D7818A819B81E816F90628F4909353
S11317907A07809379072FC08E010E5F1F4FC8010F
S11317A00E9461058C899D89892B21F0CE010C96BC
S11317B00E9461058E8990918007981710F4809398
S11317C0800790E09C01220F331F220F331F220F4A
S11317D0331F820F931FB8018355984F0E940F0542
S11317E0E091D107F091D2079E898689981708F471
S11317F0B2CFDC2CB0CFE091D107F091D20786892B
S113180090E0FC01EE0FFF1FEE0FFF1FEE0FFF1F16
S11318108E0F9F1FFC01E355F84F8081823048F002
S1131820DD24D39406C080917E078F5F80937E076A
S1131830D12C80917D07882311F0DD24D3948D2D44
S1131840DF91CF911F910F91FF90EF90DF90CF9098
S11318500895DF92EF92FF920F931F93CF93DF933C
S11318600FB6F8940F928091760781508093760793
S11318708091760781115FC080918307811133C005
S11318805DC0D7011596ED91FC911697C681D7815D
S1131890CE010C960E9461058E010E5F1F4FC80198
S11318A00E9461058E8990918007981710F48093A7
S11318B0800790E09C01220F331F220F331F220F59
S11318C0331F820F931FB8018355984F0E940F0551
S11318D0E091D107F091D2079E898689981768F024
S11318E0D0927D070AC0C0E0D0E00F2EFEE8EF2EB4
S11318F0F7E0FF2EF02DDD24D394F70180818111D0
S1131900C0CFCD2B11F00E94C909C0917E07CC2312
S113191051F0D1E00E946E0B8111D0937D07C1502C
S1131920C9F710927E0780917D07882331F00E94C9
S11319302D0681E003C080E001C080E00F900FBE5F
S1131940DF91CF911F910F91FF90EF90DF90089559
S1131950CF93DF93EC01892B51F00E945E0B60E082
S1131960CE010E94E8090E94290C811102C00E9444
S11319702D06DF91CF91089505E817E00F2EFDEABB
S1131980EF2EF7E0FF2EF02D29C00E945E0BD80148
S1131990CC910E94290CCC2309F10FB6F8940F9234
S11319A0D8011596ED91FC911697C681D781CE0189
S11319B002960E946105809183078150809383077A
S11319C0809184078150809384070F900FBE8F8984
S11319D0988D0E941A07CE010E941A0780918407ED
S11319E08111D3CFF7018081823010F00E942D063F
S11319F00E94F000F3CF80917607882321F081E0E4
S1131A0080937D07089510927D0720918007822F8F
S1131A1090E0FC01EE0FFF1FEE0FFF1FEE0FFF1F04
S1131A20E80FF91FE355F84F3081311111C02150EF
S1131A30822F90E0FC01EE0FFF1FEE0FFF1FEE0F51
S1131A40FF1FE80FF91FE355F84F3081332379F373
S1131A50AC01440F551F440F551F440F551F480F29
S1131A60591FDA01A355B84F1196ED91FC911297C5
S1131A700280F381E02D1296FC93EE93119740556A
S1131A80584FE417F50729F442815381FD0152832D
S1131A904183FC01EE0FFF1FEE0FFF1FEE0FFF1F30
S1131AA08E0F9F1FFC01E355F84F0180F281E02D5A
S1131AB0868197819093D2078093D10720938007E2
S1131AC00895CF93DF93EB016091D1077091D20712
S1131AD0645F7F4F0E94300561E0CE010E94E809F7
S1131AE0DF91CF9108950F931F93CF93DF93DC0180
S1131AF01596ED91FC911697C681D7818E01045FEE
S1131B001F4FC8010E9461058091760781111CC096
S1131B100A501109C8010E9461058E8990918007BD
S1131B20981710F48093800790E09C01220F331FD4
S1131B30220F331F220F331F820F931FB8018355C7
S1131B40984F0E940F0505C0B8018EE897E00E94E7
S1131B500F05E091D107F091D2079E8986898917F4
S1131B6020F481E080937D0701C080E0DF91CF9174
S1131B701F910F91089520917C07FC0120832091EF
S1131B80810730918207328321830895CF93DF93B5
S1131B90FC010FB6F8940F922091810730918207CF
S1131BA080917C079081981729F081819281281770
S1131BB03907B0F4A181B281EB0148815981C9018F
S1131BC08A1B9B0B8417950768F4CF01A21BB30BE8
S1131BD04A0F5B1F598348830E94BB0D80E003C0FA
S1131BE081E001C081E00F900FBEDF91CF91089595
S1131BF081E080937D070895A1E21A2EAA1BBB1BE6
S1131C00FD010DC0AA1FBB1FEE1FFF1FA217B307C4
S1131C10E407F50720F0A21BB30BE40BF50B661FDA
S1131C20771F881F991F1A9469F76095709580959E
S1131C3090959B01AC01BD01CF010895FB01DC012E
S1131C4002C001900D9241505040D8F70895AEE083
S1131C50B0E0EDE2FEE00C94E8100D891E8986E008
S1131C608C831A8309838FEF9FE79E838D83AE0154
S1131C70475E5F4F6F89788DCE0101960E94490EB1
S1131C80EF81F885E00FF11F10822E96E4E00C94AA
S1131C900411ABE0B0E0EFE4FEE00C94DA106C0168
S1131CA07B018A01FC0117821682838181FFCCC1EA
S1131CB0CE0101963C01F6019381F70193FD8591D4
S1131CC093FF81917F01882309F4BAC1853239F4E5
S1131CD093FD859193FF81917F01853229F4B601AB
S1131CE090E00E944010E7CF912C212C312CFFE191
S1131CF0F315D8F08B3279F038F4803279F08332EE
S1131D00A1F4232D20611DC08D3261F0803369F46C
S1131D10232D216016C0832D8260382EE32DE460CC
S1131D203E2E2AC0F32DF8601DC037FC2DC020EDD7
S1131D30280F2A3040F08E32B9F436FC81C1232DAD
S1131D402064322E19C036FE06C08AE0989E200D0B
S1131D501124922E11C0EAE02E9E200D1124222E71
S1131D60F32DF0623F2E08C08C3621F4832D806859
S1131D70382E02C0883641F4F70193FD859193FF14
S1131D8081917F018111B3CF982F9F7D955493301A
S1131D9028F40C5F1F4F9FE399830DC0833631F005
S1131DA0833771F0833509F059C021C0F80180816F
S1131DB089830E5F1F4F88248394912C530113C091
S1131DC02801F2E04F0E511CF801A080B18036FECC
S1131DD003C0692D70E002C06FEF7FEFC5010E9460
S1131DE035104C018201F32DFF773F2E16C02801D8
S1131DF022E0420E511CF801A080B18036FE03C0DF
S1131E00692D70E002C06FEF7FEFC5010E942A10B8
S1131E104C01F32DF0683F2E820133FC1BC0822D50
S1131E2090E088169906B0F4B60180E290E00E9432
S1131E3040102A94F4CFF50137FC859137FE819147
S1131E405F01B60190E00E94401021102A9421E025
S1131E50821A91088114910471F7E8C0843611F054
S1131E60893641F5F80137FE07C0608171818281AE
S1131E7093810C5F1F4F08C060817181072E000C95
S1131E80880B990B0E5F1F4FF32DFF763F2E97FFA4
S1131E9009C090958095709561957F4F8F4F9F4FA6
S1131EA0F0683F2E2AE030E0A3010E947C10882EC7
S1131EB0861845C0853731F4232D2F7EB22E2AE0B3
S1131EC030E025C0932D997FB92E8F36C1F018F4D8
S1131ED0883579F0B5C0803719F0883721F0B0C063
S1131EE0E92FE061BE2EB4FE0DC0FB2DF460BF2EC1
S1131EF009C034FE0AC0292F2660B22E06C028E08D
S1131F0030E005C020E130E002C020E132E0F80119
S1131F10B7FE07C060817181828193810C5F1F4F7E
S1131F2006C06081718180E090E00E5F1F4FA301C5
S1131F300E947C10882E8618FB2DFF773F2E36FEDC
S1131F400DC0232D2E7FA22E891458F434FE0BC00D
S1131F5032FC09C0832D8E7EA82E05C0B82CA32C7C
S1131F6003C0B82C01C0B92CA4FE0FC0FE01E80DBB
S1131F70F11D8081803321F49A2D997EA92E09C008
S1131F80A2FE06C0B394B39404C08A2D867809F0E7
S1131F90B394A3FC11C0A0FE06C0B21488F4280CAC
S1131FA0922C9B180EC0B21460F4B60180E290E04B
S1131FB00E944010B394F7CFB21418F42B1802C047
S1131FC0982C212CA4FE10C0B60180E390E00E945E
S1131FD04010A2FE17C0A1FC03C088E790E002C035
S1131FE088E590E0B6010CC08A2D867859F0A1FEF0
S1131FF002C08BE201C080E2A7FC8DE2B60190E052
S11320000E944010891438F4B60180E390E00E94E5
S113201040109A94F7CF8A94F301E80DF11D808162
S1132020B60190E00E9440108110F5CF222009F4FF
S113203042CEB60180E290E00E9440102A94F6CF8E
S1132040F6018681978102C08FEF9FEF2B96E2E124
S11320500C94F610FC010590615070400110D8F703
S1132060809590958E0F9F1F0895FC0161507040DC
S113207001900110D8F7809590958E0F9F1F0895B9
S11320800F931F93CF93DF93FB01238121FD03C0A3
S11320908FEF9FEF2CC022FF16C046815781248109
S11320A035814217530744F4A081B1819D012F5F0C
S11320B03F4F318320838C93268137812F5F3F4F9D
S11320C03783268314C08B01EC01FB010084F18566
S11320D0E02D0995892BE1F6D80116968D919C91F6
S11320E01797019617969C938E931697CE01DF91BE
S11320F0CF911F910F910895FA01AA27283051F129
S1132100203181F1E8946F936E7F6E5F7F4F8F4F24
S11321109F4FAF4FB1E03ED0B4E03CD0670F781F83
S1132120891F9A1FA11D680F791F8A1F911DA11D68
S11321306A0F711D811D911DA11D20D009F46894A1
S11321403F912AE0269F11243019305D3193DEF649
S1132150CF010895462F4770405D4193B3E00FD0FF
S1132160C9F7F6CF462F4F70405D4A3318F0495DEA
S113217031FD4052419302D0A9F7EACFB4E0A695CD
S11321809795879577956795BA95C9F700976105EF
S1132190710508959B01AC010A2E06945795479545
S11321A037952795BA95C9F7620F731F841F951F3A
S11321B0A01D08952F923F924F925F926F927F924B
S11321C08F929F92AF92BF92CF92DF92EF92FF9243
S11321D00F931F93CF93DF93CDB7DEB7CA1BDB0BEF
S11321E00FB6F894DEBF0FBECDBF09942A88398894
S11321F048885F846E847D848C849B84AA84B9849B
S1132200C884DF80EE80FD800C811B81AA81B981A6
S1132210CE0FD11D0FB6F894DEBF0FBECDBFED01BA
S10922200895F894FFCFBD
S1132226FF0154656D7065726174757265203D2099
S11322362564202A430D0A00446973706C61790091
S11322469600C800FA002C015E019001C201F40157
S109225649444C45000060
S9030000FC
