:100000000C9434000C9451000C9451000C94510049
:100010000C9451000C9451000C9451000C9451001C
:100020000C9451000C9451000C9451000C94FD124E
:100030000C9451000C9451000C9451000C945100FC
:100040000C9451000C9451000C9433030C94F10265
:100050000C9451000C9451000C9451000C945100DC
:100060000C9451000C94510011241FBECFEFD8E026
:10007000DEBFCDBF11E0A0E0B1E0E2EDF2E302C0EF
:1000800005900D92A636B107D9F718E0A6E6B1E0C3
:1000900001C01D92A031B107E1F70E9456000C94F7
:1000A00067190C9400000E9444100895EF92FF928B
:1000B0000F93DF93CF930F92CDB7DEB7CE010196AA
:1000C00060E570E041E050E00E94721869816F5F66
:1000D000698380E590E00E9482180E94940280E08B
:1000E0000E948A1482E040E056E960E070E024E07B
:1000F0000E94631582E00E94AB140E9476028AE996
:1001000090E060E071E045E550E020E030E003E0A1
:10011000EE24FF240E94600A83E00E945C130E9488
:10012000590B80E090E00F90CF91DF910F91FF90FD
:10013000EF9008951F9311E084EF91E00E945C0915
:1001400020911C0130911D0140911E0150911F0111
:10015000DA01C901880F991FAA1FBB1F820F931FC5
:10016000A41FB51F80931C0190931D01A0931E0135
:10017000B0931F010E945C15813011F0109366014D
:10018000809166018823C1F685E00E949C02D4CF4D
:10019000EF92FF920F931F93CF93DF937C018B011C
:1001A000C0E0D0E00BC0F701EC0FFD1F80E090E055
:1001B000608140E050E00E9474032196C017D1078F
:1001C00090F3DF91CF911F910F91FF90EF900895E1
:1001D0000F931F93CF93DF930E94E40360E076E9CF
:1001E00080E090E044E60E949C03C7E6D1E006E090
:1001F00011E084EF91E00E945C0980E00E942304FA
:10020000809387019093880100D000D000D0EDB793
:10021000FEB73196ADB7BEB71296DC93CE93119769
:1002200013830283848395830E947116FE010190DB
:100230000020E9F73197E756F1408DB79EB7069653
:100240000FB6F8949EBF0FBE8DBFCE01BF010E94B6
:10025000C800CFCF90E080918901882309F491E014
:10026000892F0895F5E00F2EF6E01F2EF7E02F2ED0
:10027000F8E03F2EF9E04F2EFAE05F2EFBE06F2E04
:10028000FCE07F2EFDE08F2EFEE09F2EFFE0AF2EE4
:10029000F0E1BF2EF1E1CF2EF2E1DF2EF3E1EF2E00
:1002A000F4E1FF2E05E116E127E138E149E15AE1E9
:1002B0006BE17CE18DE19EE1AFE1B0E2E1E2F5E0EE
:1002C000F01100928901F6E0F11100928901F7E046
:1002D000F21100928901F8E0F31100928901F9E02E
:1002E000F41100928901FAE0F51100928901FBE016
:1002F000F61100928901FCE0F71100928901FDE0FE
:10030000F81100928901FEE0F91100928901FFE0E5
:10031000FA1100928901F0E1FB1100928901F1E1EB
:10032000FC1100928901F2E1FD1100928901F3E1D3
:10033000FE1100928901F4E1FF1100928901F5E1BB
:10034000F01300928901F6E1F11300928901F7E1BF
:10035000F21300928901F8E1F31300928901F9E1A7
:10036000F41300928901FAE1F51300928901FBE18F
:10037000F61300928901FCE1F71300928901FDE177
:10038000F81300928901FEE1F91300928901FFE15F
:10039000FA1300928901F0E2FB1300928901F1E265
:1003A000FE13009289015ECFF1E00F2EF2E01F2EC6
:1003B000F3E02F2EF4E03F2EF5E04F2EF6E05F2E17
:1003C000F7E06F2EF8E07F2EF9E08F2EFAE09F2EF7
:1003D000FBE0AF2EFCE0BF2EFDE0CF2EFEE0DF2ED7
:1003E000FFE0EF2EF0E1FF2E01E112E123E134E125
:1003F00045E156E167E178E189E19AE1ABE1BCE1F1
:10040000EDE1F1E0F01100928901F2E0F1110092CA
:100410008901F3E0F21100928901F4E0F3110092F6
:100420008901F5E0F41100928901F6E0F5110092DE
:100430008901F7E0F61100928901F8E0F7110092C6
:100440008901F9E0F81100928901FAE0F9110092AE
:100450008901FBE0FA1100928901FCE0FB11009296
:100460008901FDE0FC1100928901FEE0FD1100927E
:100470008901FFE0FE1100928901F0E1FF11009275
:100480008901F1E1F01300928901F2E1F113009288
:100490008901F3E1F21300928901F4E1F313009270
:1004A0008901F5E1F41300928901F6E1F513009258
:1004B0008901F7E1F61300928901F8E1F713009240
:1004C0008901F9E1F81300928901FAE1F913009228
:1004D0008901FBE1FA1300928901FCE1FB13009210
:1004E0008901FDE1FE13009289015ECFEF92FF9238
:1004F0000F9382E391E060E271E045E550E020E097
:1005000030E000E0EE24FF240E94600A84ED91E0D8
:1005100065E271E045E550E020E030E00E94600ACD
:100520000F91FF90EF9008958FEF80932A0184B987
:1005300080912A0185B908951F93282F8830E8F407
:1005400081E090E002C0880F991F2A95E2F7182FEA
:100550000E94550480912A01812329F080912A016B
:100560001095182303C080912A01182B10932A019B
:1005700080912A0185B90E9497071F9108950F93D2
:100580001F93282F062F8830D8F481E090E002C016
:10059000880F991F2A95E2F7182F0E945504013001
:1005A00029F480912A011095182303C080912A0113
:1005B000182B10932A0180912A0185B90E94970770
:1005C0001F910F9108950FB6F8940F92E1ECF0E0AF
:1005D00080818F7D808380818F7780830F900FBE95
:1005E00008951F920F920FB60F9211242F933F93ED
:1005F0004F935F936F937F938F939F93AF93BF932B
:10060000EF93FF93DF93CF9300D0CDB7DEB7809108
:100610008C0190918D01BE016F5F7F4FAE014E5FE7
:100620005F4F0E94FC0C813021F489818093C600C9
:1006300005C08091C1008F7D8093C1000F900F9005
:10064000CF91DF91FF91EF91BF91AF919F918F91EA
:100650007F916F915F914F913F912F910F900FBEBE
:100660000F901F9018951F920F920FB60F921124A2
:100670002F933F934F935F936F937F938F939F93AA
:10068000AF93BF93EF93FF93DF93CF9300D0CDB79A
:10069000DEB71A828091C600898380918A01909189
:1006A0008B01BE016F5F7F4FAE014E5F5F4F20E059
:1006B0000E944D0D8A81882311F00E9400130F9033
:1006C0000F90CF91DF91FF91EF91BF91AF919F91EB
:1006D0008F917F916F915F914F913F912F910F90EB
:1006E0000FBE0F901F901895DF93CF930F92CDB749
:1006F000DEB7698380918C0190918D01BE016F5F9F
:100700007F4F20E00E94780E813011F080E006C01B
:100710008091C10080628093C10081E00F90CF91F1
:10072000DF91089580918A0190918B0120E00E94D1
:10073000BE0D811181E00895DF92EF92FF920F9339
:100740001F937B018C01D42E0FB6F8940F92842F47
:1007500061E040E00E94650F90938B0180938A01D5
:100760008D2D61E040E00E94650F90938D01809394
:100770008C0194E0EE0CFF1C001F111F9A95D1F71D
:1007800060E074E284EF90E0A80197010E942B16CC
:1007900021503040404050402093C400232F342F3C
:1007A000452F55272093C50088E98093C10086E036
:1007B0008093C2000F900FBE80E090E01F910F91D8
:1007C000FF90EF90DF900895E4E6F0E080818E7F67
:1007D000808310927C0081E880937A0010927B00E5
:1007E00010927E0080E00895EAE7F0E08081806862
:1007F00080830895EAE7F0E080818F778083089511
:10080000ECE7F0E09081907F90839081982B90832B
:10081000EAE7F0E0808180648083089580917A0027
:1008200090E024E0969587952A95E1F781700895E8
:100830002091780040917900942F80E030E0282BBF
:10084000392BC901089590917C00907F90937C0092
:1008500090917C00982B90937C0080917A0080642A
:1008600080937A0080917A0084FFFCCF20917800F9
:100870004091790080917A00806180937A00942F72
:1008800080E030E0282B392BC90108958AE00895D3
:1008900090938F0180938E010895E0918E01F091E5
:1008A0008F01309709F009950895809192018F5F2B
:1008B0008093920108950FB6F8940F9220919501BC
:1008C000309196010F900FBEC901089520919501B6
:1008D00030919601C901089580919B010895009778
:1008E00021F480919001909191019C01275E3F4FEE
:1008F000C901089580919201882321F081E08093BD
:1009000094010895109294012091930199E001C0FF
:100910002150299FD0011124AF55BE4F8C918823BF
:10092000B9F31196ED91FC9112970280F381E02DBD
:100930001296FC93EE931197CD010396E817F907F1
:1009400031F48281938112969C938E931197119624
:10095000ED91FC91129786819781909391018093FC
:100960009001209393010895FC0180919901808367
:100970008091950190919601928381830895FC0165
:10098000DB010FB6F8940F924091950150919601BA
:10099000909199018081981729F08181928148175F
:1009A0005907E0F4218132816D917C911197CA0140
:1009B000821B930B8617970788F4241B350B260F91
:1009C000371F2D933C9380919901808380919501ED
:1009D000909196019283818380E001C081E00F9025
:1009E0000FBE089581E0809394010895E0919001F5
:1009F000F091910184859585A0919001B09191012C
:100A0000E0919001F0919101468924E030E0241BAF
:100A100031091D963C932E931C970895009729F455
:100A2000E0919001F091910101C0FC010FB6F894A2
:100A30000F9285A1823011F080E002C015A281E002
:100A40000F900FBE0895EF92FF920F931F93CF93D5
:100A5000DF937B01EC012DA182E08DA389A19AA1F6
:100A6000ABA1BCA10196A11DB11D89A39AA3ABA303
:100A7000BCA3213091F5809192018823A9F48E01C5
:100A80000E5F1F4FC8010E94F20F9E898091930153
:100A9000891710F49093930189E0989FC001112465
:100AA0008F559E4FB80105C0BE01645F7F4F8BED2F
:100AB00091E00E94A10FE0919001F09191019E8937
:100AC0008689891750F4E114F10421F081E0F701DF
:100AD000808303C081E080939401DF91CF911F91C7
:100AE0000F91FF90EF900895EF92FF920F931F9355
:100AF000CF93DF93F801EC010115110541F089A1B5
:100B00009AA1ABA1BCA180839183A283B3833DA1B1
:100B100082E08DA3223099F0233018F4213019F5AA
:100B200005C02330E1F02430F1F415C089A19AA169
:100B3000ABA1BCA1842B952BA62BB72B07C089A1F9
:100B40009AA1ABA1BCA10196A11DB11D89A39AA335
:100B5000ABA3BCA308C0323011F480E03AC049A373
:100B60005AA36BA37CA3313099F58091920188231D
:100B7000A9F48E010E5F1F4FC8010E94F20F9E89DB
:100B800080919301891710F49093930189E0989FC5
:100B9000C00111248F559E4FB80105C0BE01645F8E
:100BA0007F4F8BED91E00E94A10FE0919001F091B9
:100BB00091019E898689891758F4E114F10421F086
:100BC00081E0F701808305C081E08093940101C03A
:100BD00081E0DF91CF911F910F91FF90EF900895E9
:100BE0000F931F93CF93DF93FC0170687183608331
:100BF000C681D7810E94F20F8E010E5F1F4FC80180
:100C00000E94F20F9E8980919301891710F49093AE
:100C1000930189E0989FC00111248F559E4FB80120
:100C20000E94A10FE0919001F09191019E89868927
:100C3000891710F080E003C081E080939401DF9178
:100C4000CF911F910F9108950F931F93CF93DF932F
:100C5000DC011596ED91FC911697C681D7818E0126
:100C6000045F1F4FC8010E94F20F809192018823F8
:100C7000A1F48E010E5F1F4FC8010E94F20F9E89E2
:100C800080919301891710F49093930189E0989FC4
:100C9000C00111248F559E4F02C08BED91E0B80129
:100CA0000E94A10FE0919001F09191019E898689A7
:100CB000891710F080E003C081E080939401DF91F8
:100CC000CF911F910F910895CF92DF92EF92FF92F3
:100CD0000F931F93CF93DF9380919201882309F0A4
:100CE000A6C000919501109196010F5F1F4F1093C0
:100CF0009601009395010115110579F52091D70111
:100D00003091D8018091D9019091DA019093D80166
:100D10008093D7013093DA012093D9018091990112
:100D20008F5F80939901E091D701F091D801808184
:100D3000882319F48FEF9FEF0CC0E091D701F09159
:100D4000D8010580F681E02D0680F781E02D8281B3
:100D5000938190939801809397018091970190914E
:100D600098010817190708F44BC0DD2449E0C42E88
:100D7000E091D701F091D8018081882319F48FEF99
:100D80009FEF0EC0E091D701F091D8010580F68168
:100D9000E02DC681D7818A819B810817190728F425
:100DA00090939801809397012CC032E0E32EF12CB0
:100DB000EC0EFD1EC7010E94F20F8C899D89892BC4
:100DC00021F0CE010C960E94F20F9E898091930132
:100DD000891710F4909393019C9DC00111248F55A5
:100DE0009E4FB7010E94A10FE0919001F0919101F7
:100DF0009E898689981708F4BBCFDD24D394B8CF99
:100E0000DD24E0919001F0919101868990E0FC0150
:100E100023E0EE0FFF1F2A95E1F7E80FF91FEF55CA
:100E2000FE4F8081823048F0DD24D39406C080914B
:100E30009A018F5F80939A01DD2480919401882329
:100E400011F0DD24D3948D2DDF91CF911F910F915F
:100E5000FF90EF90DF90CF9008950F931F93CF9363
:100E6000DF93F801EC010FB6F8940F92011511050C
:100E700041F089A19AA1ABA1BCA180839183A283F7
:100E8000B3833DA182E08DA3223099F0233018F482
:100E9000213019F505C02330E1F02430F1F415C0FC
:100EA00089A19AA1ABA1BCA1842B952BA62BB72B12
:100EB00007C089A19AA1ABA1BCA10196A11DB11D3A
:100EC00089A39AA3ABA3BCA308C0323011F480E07D
:100ED00027C049A35AA36BA37CA3313001F58E012F
:100EE0000E5F1F4FC8010E94F20F9E8980919301EF
:100EF000891710F49093930189E0989FC001112401
:100F00008F559E4FB8010E94A10FE0919001F09182
:100F100091019E898689891710F40E94001381E04F
:100F20000F900FBEDF91CF911F910F910895EF9217
:100F3000FF920F931F93CF93DF930FB6F8940F9206
:100F40008091920181508093920180919201882337
:100F500009F06CC080919B01882309F467C0C0E050
:100F6000D0E059E0E52EFF24F39429C0E091E001A0
:100F7000F091E101C681D781CE010C960E94F20F5B
:100F80008E010E5F1F4FC8010E94F20F9E89809153
:100F90009301891710F4909393019E9DC001112431
:100FA0008F559E4FB8010E94A10FE0919001F091E2
:100FB00091019E898689981710F0F0929401809192
:100FC000DB01882399F6CD2BD1F0E091D701F09188
:100FD000D8018081882319F48FEF9FEF0CC0E09136
:100FE000D701F091D8010580F681E02D0680F781C8
:100FF000E02D8281938190939801809397011091C5
:101000009A01112359F001E00E946406882311F02F
:10101000009394011150C1F710929A0180919401AC
:10102000882321F00E94001381E001C080E00F902E
:101030000FBEDF91CF911F910F91FF90EF90089518
:101040000F931F93CF93DF93EC01009195011091C3
:101050009601809190019091910102960E94F20F69
:10106000C00FD11FE0919001F0919101D383C28311
:10107000C017D10768F48091D9019091DA0160918D
:101080009001709191016E5F7F4F0E94C00F17C059
:101090008091D7019091D801609190017091910158
:1010A0006E5F7F4F0E94C00F8091970190919801D1
:1010B000C817D90720F4D0939801C0939701DF9106
:1010C000CF911F910F9108956F927F928F929F926F
:1010D000AF92BF92CF92DF92EF92FF920F931F9346
:1010E000CF93DF935B016C0139014A01E8010FB630
:1010F000F8940F92E0919001F091910185A18230D6
:1011000019F1E0919001F091910181A192A1A3A127
:10111000B4A1A094B094C094D0948A219B21AC2116
:10112000BD2181A392A3A3A3B4A3E0919001F09168
:10113000910181E085A3E114F10431F0C70161E080
:101140000E9420080E9400130F900FBE0FB6F89463
:101150000F92209761F0E0919001F091910181A1AF
:1011600092A1A3A1B4A188839983AA83BB83E091B0
:101170009001F091910185A1813011F480E015C0BA
:10118000E0919001F091910181A192A1A3A1B4A15C
:10119000609470948094909486219721A821B9211D
:1011A00081A392A3A3A3B4A381E0E0919001F09165
:1011B000910115A20F900FBEDF91CF911F910F915A
:1011C000FF90EF90DF90CF90BF90AF909F908F9067
:1011D0007F906F9008951F93182F0FB6F8940F9279
:1011E000E0919001F091910181A192A1A3A1B4A1FC
:1011F0000097A105B10579F4E0919001F09191017A
:1012000081E085A36115710531F0CB0161E00E9499
:1012100020080E9400130F900FBE0FB6F8940F9293
:10122000E0919001F091910121A132A143A154A13B
:101230002115310541055105D9F0112349F0E091FF
:101240009001F091910111A212A213A214A210C058
:10125000E0919001F0919101215030404040504088
:1012600021A332A343A354A32F5F3F4F4F4F5F4FA0
:10127000E0919001F091910115A20F900FBEB9017C
:10128000CA011F9108950F931F938A01E091900165
:10129000F0919101706875876487609190017091F9
:1012A0009101645F7F4F0E94A10FC80161E00E941D
:1012B00020081F910F9108959C01009769F080917B
:1012C00092018F5F80939201C90160E00E94200823
:1012D0000E949707882311F40E9400130895FC01CF
:1012E000809192018F5F809392014091950150917E
:1012F000960120813181620F731F4217530728F432
:101300006217730728F080E008C06217730720F0A7
:1013100080E04617570708F481E0718360838823D3
:1013200031F0CB01841B950B60E00E9420080E94E5
:101330009707882311F40E94001308950F931F93B9
:101340008B016091900170919101645F7F4F0E94C9
:10135000C00FC80161E00E9420081F910F910895FD
:10136000F89410929C010E949F1208950F931F936E
:101370002CC0809192018F5F809392011091E401C3
:101380000E949707112309F10FB6F8940F92E0918C
:10139000E901F091EA0106811781C80102960E94D5
:1013A000F20F80919B01815080939B0180919F015E
:1013B000815080939F010F900FBEF8018789908D17
:1013C0000E94DB11C8010E94DB1180919F018823DC
:1013D00081F68091A101823010F00E9400130E94DA
:1013E0005300F3CF0F931F93CF93DF930FB6F8946F
:1013F0000F92009729F4C0919001D091910101C002
:10140000EC018E010E5F1F4FC8010E94F20F8C8904
:101410009D89892B21F0CE010C960E94F20F8091BC
:10142000A0018F5F8093A001809190019091910124
:10143000C817D90759F484EE91E0B8010E94A10FB2
:1014400080919F018F5F80939F0126C080919B01B7
:10145000815080939B018F89988D0E94DB11CE0172
:101460000E94DB11E091D701F091D801808188239F
:1014700019F48FEF9FEF0CC0E091D701F091D801E4
:101480000580F681E02D0680F781E02D8281938131
:1014900090939801809397010F900FBE80919C01CB
:1014A000882349F08091900190919101C817D90744
:1014B00011F40E940013DF91CF911F910F910895B5
:1014C0004F925F926F927F928F929F92AF92BF9254
:1014D000CF92DF92EF92FF920F931F93CF93DF9300
:1014E0002C01162F972E6A0139015701CA010E945B
:1014F000EB117C01009799F086E290E00E94EB11DD
:10150000EC01009749F0F88EEF8A812F992D9C010C
:10151000F901DE0190E005C0C7010E94DB118FEFE9
:10152000B7C0808159968C9359978081882329F080
:101530009F5F319611969830A1F718A2043008F0F9
:1015400003E00E8B72E0872E912C8C0E9D1EC40141
:101550000E949D0FCE010C960E949D0FD987C887CF
:1015600084E090E0801B91099D878C87DB8BCA8B80
:1015700019A21AA21BA21CA21DA20894C108D1087C
:10158000C7018C0D9D1DB201A3010E941D129983FC
:101590008883A114B10419F0F501D183C0830FB67B
:1015A000F8940F9280919B018F5F80939B018091B3
:1015B000900190919101892BA9F5D0939101C0934D
:1015C000900180919B018130E9F581EA91E00E94D0
:1015D0008D0F8AEA91E00E948D0F83EB91E00E94CB
:1015E0008D0F8CEB91E00E948D0F65ECE62E61E093
:1015F000F62EC7010E948D0F0EEC11E0C8010E946B
:101600008D0F8BED91E00E948D0F84EE91E00E9492
:101610008D0FF092D801E092D7011093DA01009378
:10162000D90110C080919C01882361F4E091900160
:10163000F091910196898E89891720F0D0939101BC
:10164000C09390018091A0018F5F8093A0019E893B
:1016500080919301891710F49093930189E0989FEA
:10166000C00111248F559E4FB4010E94A10F0F900D
:101670000FBE80919C01882351F0E0919001F09180
:10168000910196898E89981710F40E94001381E0C9
:10169000DF91CF911F910F91FF90EF90DF90CF904E
:1016A000BF90AF909F908F907F906F905F904F9082
:1016B0000895EF92FF920F9386EB99E06BE271E051
:1016C00045E550E020E030E000E0EDE9EE2EE1E01D
:1016D000FE2E0E94600A813081F4F8948FEF9FEF14
:1016E000909398018093970181E080939C011092E0
:1016F0009601109295010E9465120F91FF90EF9054
:1017000008950FB6F8940F92FC01828D0F900FBED2
:101710000895FC010FB6F8940F92928D0F900FBEB2
:10172000838D891B0895FC01828D0895FC01828DB3
:1017300090E0882309F491E0892F0895FC01928DAF
:1017400020E0838D981709F421E0822F08950F93EC
:101750001F93CF93DF93EC01042F1A8D4C8D4423FC
:10176000C1F10023B1F48C819D8150E00E94681684
:101770008C8D2C813D81280F311D3D832C838A81E6
:101780009B812817390728F1888199819D838C8353
:1017900020C08E819F8150E00E9468168C8D90E061
:1017A00044275527481B590B8E819F81840F951F15
:1017B0009F838E83288139818217930730F48A8131
:1017C0009B81840F951F9F838E83023011F411112A
:1017D00011501F5F1A8F80E0DF91CF911F910F9101
:1017E0000895FC01562FA72F248D2223B9F086815E
:1017F0009781820F911D978386832281338182177F
:10180000930720F08081918197838683448D668140
:101810007781852F9A2F50E00E94681608950F93C4
:101820001F93CF93DF93EC018A8D882341F00E81C3
:101830001F81CE010E94F10B1F830E8381E0DF9197
:10184000CF911F910F9108950F931F93CF93DF9323
:10185000FB018A01EC018A8D882361F18C8D2E8138
:101860003F81280F311D3F832E838A819B8128175A
:10187000390720F0888199819F838E838A8D8150DA
:101880008A8F4C8D6E817F81CF0150E00E94681657
:10189000F8018081882369F48885882351F0CE017E
:1018A00008960E941C10882321F081E0F8018083B3
:1018B00001C081E0DF91CF911F910F9108951F9397
:1018C000CF93DF93142FEC019A8D8B8D981788F4AA
:1018D000CE0140E00E94A70B112359F48989882387
:1018E00041F0CE0141960E941C10482F811141E029
:1018F000142F812FDF91CF911F910895CF93DF9304
:10190000FB01EC01F8948A8D882371F4411551058F
:1019100041F06196CA01BE010E94241178948CEFB7
:101920002FC0789480E02CC07894F8948A8D882316
:1019300031F18C8D2E813F81280F311D3F832E8305
:101940008A819B812817390720F0888199819F839C
:101950008E838A8D81508A8F4C8D6E817F81CF01DD
:1019600050E00E9468168885882341F0CE010896D1
:101970000E941C10882311F08BEF01C081E0789445
:10198000DF91CF910895CF93DF93EC01F8940FB6D8
:10199000F8940F928A8D9B8D0F900FBE891771F46A
:1019A0004115510541F02896CA01BE010E9424113B
:1019B00078948CEF1BC0789480E018C07894F894E9
:1019C0008A8D891710F080E010C0CE0140E00E949F
:1019D000A70B8989882341F0CE0141960E941C10F3
:1019E000882311F08BEF01C081E07894DF91CF91D3
:1019F00008950E94DB110895EF92FF920F931F93B9
:101A0000CF93DF937A01EC011A8D112311F480E05A
:101A10001AC00D8D0E94F10B11501A8F0F3F81F4E7
:101A20008885882379F0CE0108960E9424068823B1
:101A300049F0E114F10431F081E0F701808303C043
:101A40000F5F0D8F81E0DF91CF911F910F91FF907C
:101A5000EF900895CF93DF93EB01FC01928D838D7E
:101A6000981710F080E016C0868D9F5F928F8F3F91
:101A700071F48189882369F0CF0141960E94240680
:101A8000882339F0209729F081E0888303C08F5F95
:101A9000868F81E0DF91CF910895EF92FF921F939F
:101AA000CF93DF937A01EC019A8D8B8D981720F0FC
:101AB000223011F080E01AC01E8DCE01422F0E940C
:101AC000A70B1F3F81F48989882379F0CE014196C5
:101AD0000E942406882349F0E114F10431F081E0EA
:101AE000F701808303C01F5F1E8F81E0DF91CF91DC
:101AF0001F91FF90EF900895EF92FF921F93CF9365
:101B0000DF93EC010FB6F8940F921E8D91E1E92E50
:101B1000F12CEC0EFD1E0BC08989882351F0C70102
:101B20000E942406882311F00E94F204115011161D
:101B30009CF38FEF8E8F0F900FBE0FB6F8940F921D
:101B40001D8D88E0E82EF12CEC0EFD1E0BC0888563
:101B5000882351F0C7010E942406882311F00E94B7
:101B6000F204115011169CF38FEF8D8F0F900FBE62
:101B7000DF91CF911F91FF90EF9008956F927F9228
:101B80008F929F92AF92BF92CF92DF92EF92FF928D
:101B90000F931F93DF93CF9300D000D00F92CDB758
:101BA000DEB74B015D834C83E22E8C0141E1A42E14
:101BB000B12CA80EB91E20E06E010894C11CD11CE6
:101BC00034E0632E712C6C0E7D1E01C021E00FB637
:101BD000F8940F92F801F28CFF2011F1C680D780A3
:101BE000C801B4010E94F10BEE2049F4FA94F80107
:101BF000F28E8085882381F0C801089607C0F8011D
:101C0000D782C6828189882339F0C5010E942406C3
:101C1000882311F00E9400130F900FBE81E054C082
:101C20008C819D81892B21F40F900FBE80E04CC0E8
:101C3000222319F4C6010E94B4040F900FBE0E9423
:101C400055040FB6F8940F92F801858D8F3F09F473
:101C5000158EF801868D8F3F09F4168E0F900FBEFA
:101C6000C601B3010E94BF048823F9F40FB6F894AB
:101C70000F92F801828D0F900FBE882381F46C8142
:101C80007D81C5010E949E09C8010E947C0D0E94B1
:101C90009707882309F09ACF0E94001397CFC801B5
:101CA0000E947C0D0E94970791CFC8010E947C0D75
:101CB0000E9497070FB6F8940F92F801828D0F904B
:101CC0000FBE882309F082CF0F900F900F900F90D6
:101CD0000F90CF91DF911F910F91FF90EF90DF90C8
:101CE000CF90BF90AF909F908F907F906F9008950E
:101CF0006F927F929F92AF92BF92CF92DF92EF92BC
:101D0000FF920F931F93DF93CF9300D000D00F92D9
:101D1000CDB7DEB76B015D834C83922E8C0168E0FA
:101D2000E62EF12CE80EF91E20E05E010894A11CBD
:101D3000B11C54E0652E712C6C0E7D1E01C021E09B
:101D40000FB6F8940F92F801928D838D981718F0C2
:101D5000F2E09F16C9F4C801B601492D0E94A70BF5
:101D6000982FF8018189882339F0C80141960E9493
:101D70002406882329F002C0992311F00E94001341
:101D80000F900FBE81E04CC08C819D81892B19F48E
:101D90000F900FBE44C0222319F4C5010E94B40461
:101DA0000F900FBE0E9455040FB6F8940F92F801E1
:101DB000858D8F3F09F4158EF801868D8F3F09F4CC
:101DC000168E0F900FBEC501B3010E94BF04882379
:101DD00009F50FB6F8940F92F801928D0F900FBE8F
:101DE000F801838D981781F46C817D81C7010E9471
:101DF0009E09C8010E947C0D0E949707882309F064
:101E00009ECF0E9400139BCFC8010E947C0D0E94B0
:101E1000970795CFC8010E947C0D0E94970780E02C
:101E20000F900F900F900F900F90CF91DF911F9117
:101E30000F91FF90EF90DF90CF90BF90AF909F9069
:101E40007F906F900895CF93DF93EC010FB6F894D5
:101E50000F92EC8D2B8DE29FC00111244881598196
:101E6000840F951F9B838A831A8E5D834C8330E099
:101E700021503040F0E02E9FC0012F9F900D3E9FDB
:101E8000900D1124480F591F5F834E838FEF8D8F64
:101E90008E8F662361F48885882389F0CE010896A9
:101EA0000E942406882359F00E94001308C0CE0126
:101EB00008960E948D0FCE0141960E948D0F0F90C3
:101EC0000FBE81E0DF91CF9108950F931F93CF93C1
:101ED000DF93082F162F662319F480E090E003C0EB
:101EE000689FC00111244F960E94EB11EC010097EE
:101EF00071F0112319F49983888303C04F96998355
:101F000088830B8F1C8FCE0161E00E94230FCE01CE
:101F1000DF91CF911F910F910895FC019C012D5FDE
:101F20003F4F328321838FEF9FEF948383833683E8
:101F300025833087278310820895FC01118610863F
:101F40000895AC01FC01A181B281FB01B383A2839E
:101F500014968D919C911597958384831496ED9199
:101F6000FC9115977383628315967C936E931497F7
:101F7000FB0151874087FA0180818F5F808308953C
:101F8000CF93DF939C01EB01488159818FEF4F3F45
:101F9000580721F4F901A781B0850DC0D901139626
:101FA0001296ED91FC911397808191814817590702
:101FB00010F0DF01F5CF1296ED91FC911397FB83A2
:101FC000EA83D583C483BD83AC831396DC93CE931D
:101FD000129739872887F90180818F5F8083DF918D
:101FE000CF910895CF93DF93DC011896CD91DC91CA
:101FF000199712964D915C91139714968D919C911F
:102000001597FA019583848314962D913C91159729
:10201000F9015383428389819A818A179B0711F4BE
:102020003A83298319961C921E92189788818150B1
:102030008883DF91CF910895EF92FF920F931F93C2
:10204000DC011596ED91FC911697E680F7808701EB
:10205000045F1F4FC8010E94F20F8EE192E0B801A9
:102060000E94A10F20E0E091ED01F091EE01D70177
:1020700056969C918689981708F021E0822F1F912F
:102080000F91FF90EF900895FF920F931F93CF93BE
:10209000DF9399E0F92E21C0F894E0912302F091AA
:1020A000240206811781C8010C960E94F20F7894D1
:1020B000E8012296CE010E94F20FF80196898091E4
:1020C000EF01891710F49093EF019F9DC001112437
:1020D0008A509E4FBE010E94A10F80911E0288234C
:1020E000D9F60E945B042091F0013091F101821B2E
:1020F000930B9093F3018093F20189E0F82E53C083
:1021000001969093F5018093F40121503040309373
:10211000F3012093F201892B09F03EC020911A02AD
:1021200030911B0280911C0290911D0290931B0222
:1021300080931A0230931D0220931C022DC005804B
:10214000F681E02DC681D7812091F4013091F5010F
:102150008A819B812817390730F1F8948E010E5F30
:102160001F4FC8010E94F20F8C899D89892B21F095
:10217000CE010C960E94F20F78949E898091EF0117
:10218000891710F49093EF019F9DC00111248A508C
:102190009E4FB8010E94A10FE0911A02F0911B021C
:1021A0008081882361F62091F2013091F3018091C2
:1021B000F4019091F5012115310509F0A1CF90931B
:1021C000F1018093F0019091EF0129E006C099237D
:1021D00019F41092EF0132C09150929FD001112456
:1021E000AA50BE4F8C91882391F39093EF011196E2
:1021F000ED91FC9112970280F381E02D1296FC93F1
:10220000EE931197CD010396E817F90731F4828117
:10221000938112969C938E9311971196ED91FC9158
:1022200012970680F781E02DF093EE01E093ED0127
:1022300020813181CF016789F9010995DF91CF9123
:102240001F910F91FF9008950F931F93CF93DF93EA
:10225000EB010091F4011091F501080F191F809115
:10226000ED019091EE0102960E94F20FE091ED01D6
:10227000F091EE01138302838091F4019091F501B6
:10228000BF016E5F7F4F0817190728F480911C0269
:1022900090911D0204C080911A0290911B020E942D
:1022A000C00F209749F06091ED017091EE01645FDD
:1022B0007F4FCE010E94C00FDF91CF911F910F91F0
:1022C0000895AF92BF92CF92DF92EF92FF920F9359
:1022D0001F93CF93DF936C01B62EA42E8AE190E07A
:1022E0000E94EB11EC01009711F48FEF59C080911F
:1022F000ED019091EE01892B21F5D093EE01C09371
:10230000ED0186EF91E00E948D0F8FEF91E00E942A
:102310008D0F28E0E22E22E0F22EC7010E948D0FE1
:1023200001E112E0C8010E948D0F8EE192E00E944F
:102330008D0FF0921B02E0921A0210931D0200937F
:102340001C02EB2CBB2011F0EE24E394198E188EA6
:10235000EE8AAF8AFE01C192D1928F01CF010E9415
:102360009D0FCE010C960E949D0FD987C887DB8BED
:10237000CA8B82E090E08E1991099D878C879E8997
:102380008091EF01891710F49093EF0189E0989FF5
:10239000C00111248A509E4FB8010E94A10F81E014
:1023A000DF91CF911F910F91FF90EF90DF90CF9031
:1023B000BF90AF90089508951092280210922702BE
:1023C00008952BED35E08091270290912802281B7B
:1023D000390BC9010895CF93DF93EC010E94550496
:1023E0008091290290912A02892B31F48CE292E0AB
:1023F00090932A028093290220912702309128028B
:10240000CE01820F931F45E08B3D940770F428178F
:10241000390758F4C0912902D0912A02C20FD31F64
:10242000909328028093270202C0C0E0D0E00E946F
:102430009707CE01DF91CF910895FC0191E1908340
:1024400022E2229383E3829362937293129280E852
:102450008293129282E0829383E0829384E082935B
:1024600085E0829386E0829387E0829388E082937E
:1024700089E0829380E18293929382E1829383E167
:10248000829384E1829385E1829386E1829387E15E
:10249000829388E1829389E1829380E2829381E250
:1024A0008293229383E282934293529386E28293B1
:1024B00087E2829388E2829389E2829380E3829327
:1024C00081E382933197CF0108951092890089EFBB
:1024D000809388008BE080938100EFE6F0E08081BC
:1024E00082608083A0919001B0919101CD91CDBF88
:1024F000DD91DEBFFF91EF91DF91CF91BF91AF9161
:102500009F918F917F916F915F914F913F912F910B
:102510001F910F91FF90EF90DF90CF90BF90AF9001
:102520009F908F907F906F905F904F903F902F90F3
:102530001F900F900FBE0F90089581E008950895A9
:102540000F920FB6F8940F921F9211242F923F9280
:102550004F925F926F927F928F929F92AF92BF92B3
:10256000CF92DF92EF92FF920F931F932F933F939F
:102570004F935F936F937F938F939F93AF93BF938B
:10258000CF93DF93EF93FF93A0919001B0919101CE
:102590000DB60D920EB60D920E946406882311F0BE
:1025A0000E947A04A0919001B0919101CD91CDBF8C
:1025B000DD91DEBFFF91EF91DF91CF91BF91AF91A0
:1025C0009F918F917F916F915F914F913F912F914B
:1025D0001F910F91FF90EF90DF90CF90BF90AF9041
:1025E0009F908F907F906F905F904F903F902F9033
:1025F0001F900F900FBE0F9008950E94A012189583
:102600000F920FB6F8940F921F9211242F923F92BF
:102610004F925F926F927F928F929F92AF92BF92F2
:10262000CF92DF92EF92FF920F931F932F933F93DE
:102630004F935F936F937F938F939F93AF93BF93CA
:10264000CF93DF93EF93FF93A0919001B09191010D
:102650000DB60D920EB60D920E947A04A0919001D3
:10266000B0919101CD91CDBFDD91DEBFFF91EF9192
:10267000DF91CF91BF91AF919F918F917F916F919A
:102680005F914F913F912F911F910F91FF90EF908C
:10269000DF90CF90BF90AF909F908F907F906F9082
:1026A0005F904F903F902F901F900F900FBE0F9014
:1026B00008958091300108950F931F93082F89305A
:1026C00008F008E081E061E040E00E94650F90932F
:1026D000080880930708892B89F010E007C088EC70
:1026E00093E160E0412F0E9461111F5F1017B8F362
:1026F00081E893E161E040E00E9461111F910F9138
:1027000008950F931F93DF93CF930F92CDB7DEB74A
:102710008C01FC01808D918DF1E0823C9F07B1F02E
:1027200021E0833C920751F1892B61F580910708E4
:1027300090910808BE016F5F7F4F4FEF5FEF0E94DF
:102740007E0C8C3F71F482EC91E00FC08091070801
:1027500090910808BE016F5F7F4F40E050E00E94FB
:102760007E0C8B3F31F483EC91E0F801918F808FE8
:1027700009C0813019F010923001D8CF89810E94B0
:102780009C02D4CF0F90CF91DF911F910F910895AC
:102790000F931F93DF93CF930F92CDB7DEB769836B
:1027A0008C01FC01808D918DF1E082389F07F1F062
:1027B00021E08338920718F4892B41F03EC0E1E014
:1027C00083389E0739F186599140B9F58091070801
:1027D00090910808BE016F5F7F4F40E050E00E947B
:1027E000C30C8C3F71F482E891E024C0809107080B
:1027F00090910808BE016F5F7F4F40E050E00E945B
:10280000C30C8B3F19F483E891E014C0813011F0C0
:1028100010923001E981F0E0EE0FFF1FEF5CFE4FF8
:1028200080819181009721F060E070E00E94241186
:1028300086E991E0F801918F808F0F90CF91DF9121
:102840001F910F9108959F92AF92BF92CF92DF9206
:10285000EF92FF920F931F93DF93CF9300D000D09E
:10286000CDB7DEB78C01EE24FF249BE7A92EB12C57
:10287000C12CD12C9924939403C081E0E82EF12C33
:10288000A982BA82CB82DC8289819A81AB81BC81A8
:10289000895B9B46AC4FBF4F89839A83AB83BC83D4
:1028A00069817A818B819C812DEF3FEF4FEF5FEF44
:1028B0000E94F81569837A838B839C8369817A816E
:1028C0008B819C8127E030E040E050E00E944D1673
:1028D000C901DA0189839A83AB83BC8389819A8198
:1028E000AB81BC818B519747AE4FBF4F31F6E1149E
:1028F000F10409F0C2CF0FB6F8940F92F80190825C
:102900000F900FBEBDCF8091090810920908811168
:1029100081E00895EF92FF920F93082F83E294E1F4
:1029200061E471E045E550E029E038E0EE24FF2461
:102930000E94600A0F91FF90EF90089580910A081D
:10294000882321F080910B08811181E010920A0800
:1029500010920B080895EF92FF920F931F93182F78
:102960008AE062E040E00E94650F90930D0880933A
:102970000C08892BB9F083E195E169E471E045E544
:1029800050E02CE038E0012FEE24FF240E94600A82
:1029900087ED94E161E571E045E550E02CE038E039
:1029A0000E94600A1F910F91FF90EF900895CF92BF
:1029B000DF92EF92FF920F931F93DF93CF9300D09C
:1029C000CDB7DEB77C011A82198200E010E06E01FB
:1029D0000894C11CD11C1FC0F70180819181B601F0
:1029E00040E050E020E00E94780E813011F001E0DC
:1029F00011C0002351F40FB6F8940F9280910B0888
:102A00008F5F80930B080F900FBE89819A8101968A
:102A10009A8389831F5F1330FCF283E090E00E9469
:102A20005C0910E0D9CF9F92AF92BF92CF92DF9214
:102A3000EF92FF920F931F93DF93CF9300D0CDB708
:102A4000DEB7982EC92EDD24EE24FF245E01089403
:102A5000A11CB11C23C0F80180819181B50140E027
:102A600050E020E00E94BE0D8130C1F429813A81FE
:102A70002E153F0519F0DD24D3940CC0DD2051F450
:102A80000FB6F8940F9280910A088F5F80930A081E
:102A90000F900FBE79010894E11CF11C092D1C2D2B
:102AA000F801808191810E94810B8823A1F68FEE2D
:102AB0009FEF0E945C09F2CF80910E0810920E08E1
:102AC000811181E00895EF92FF920F931F93182FC9
:102AD00020930F08CB01BA0148E10E949C03012F0B
:102AE000015080ED95E169E571E045E550E020E0B9
:102AF00030E0EE24FF240E94600A8DE895E16FE546
:102B000071E045E550E020E030E0012F0E94600ACE
:102B10001F910F91FF90EF900895EF92FF920F9306
:102B20001F93DF93CF930F92CDB7DEB700E07E0106
:102B30000894E11CF11C11E480E090E0B7014FEF34
:102B40005FEF0E949203882351F08981811711F071
:102B500011E009C080910F088F5F0E949C021F5FE7
:102B6000193551F710E080910F088F5F60E00E94E7
:102B7000BF02113069F407C080E090E0B7014FEF69
:102B80005FEF0E94920389818835B1F70F5FD3CF41
:102B900002308CF680910E088F5F80930E08CBCFA9
:102BA0001F9311E40EC080E090E0612F40E050E000
:102BB0000E947403813021F480910F080E949C02CE
:102BC0001F5F193584F380910F0860E00E94BF02F7
:102BD0000E945B04039666E970E00E941716823338
:102BE000910510F482E390E00E945C0911E4DBCFD0
:102BF000629FD001739FF001829FE00DF11D649FE1
:102C0000E00DF11D929FF00D839FF00D749FF00D6C
:102C1000659FF00D9927729FB00DE11DF91F639F0D
:102C2000B00DE11DF91FBD01CF0111240895AA1BAC
:102C3000BB1B51E107C0AA1FBB1FA617B70710F0A7
:102C4000A61BB70B881F991F5A95A9F780959095D9
:102C5000BC01CD010895A1E21A2EAA1BBB1BFD01E8
:102C60000DC0AA1FBB1FEE1FFF1FA217B307E4076B
:102C7000F50720F0A21BB30BE40BF50B661F771FC3
:102C8000881F991F1A9469F76095709580959095A3
:102C90009B01AC01BD01CF01089597FB092E0526CC
:102CA0000ED057FD04D0D7DF0AD0001C38F4509561
:102CB0004095309521953F4F4F4F5F4F0895F6F760
:102CC00090958095709561957F4F8F4F9F4F089598
:102CD000FB01DC0102C001900D9241505040D8F739
:102CE0000895AEE0B0E0E7E7F6E10C943E190D89F7
:102CF0001E8986E08C831A8309838FEF9FE79E836A
:102D00008D839E01275E3F4FCE0101966F89788D9E
:102D1000A9010E9495162F813885020F131FF80113
:102D200010822E96E4E00C945A19ABE0B0E0EBE987
:102D3000F6E10C9430193C012B015A01FC01178279
:102D40001682838181FD03C06FEF7FEFC6C19AE0D9
:102D5000892E1E010894211C311CF3012381F201EC
:102D600023FD859123FF81912F01882309F4B2C1AE
:102D7000853239F423FD859123FF81912F0185321E
:102D800029F490E0B3010E94A618E7CF982FFF2402
:102D9000EE249924FFE1FF15D0F09B3269F09C32BC
:102DA00028F4903259F0933291F40EC09D3249F0DC
:102DB000903369F441E024C052E0F52A84E0F82A17
:102DC00028C098E0F92A25C0E0E1FE2A22C0F7FCDD
:102DD00029C0892F80538A3070F4F6FE05C0989C74
:102DE000902C1124980E15C0E89CE02C1124E80EBC
:102DF000F0E2FF2A0EC09E3229F4F6FC6BC140E4DB
:102E0000F42A07C09C3619F450E8F52A02C0983617
:102E100049F4F20123FD959123FF91912F0199230C
:102E200009F0B8CF892F8554833018F08052833051
:102E300038F444E050E0A40EB51E5FE359830FC0A0
:102E4000933631F0933779F0933509F056C020C0AE
:102E5000F5018081898342E050E0A40EB51E610136
:102E600001E010E012C0F501C080D180F6FC03C083
:102E70006FEF7FEF02C0692D70E042E050E0A40EDA
:102E8000B51EC6010E949B188C015FE7F52214C095
:102E9000F501C080D180F6FC03C06FEF7FEF02C068
:102EA000692D70E042E050E0A40EB51EC6010E94FC
:102EB00090188C0150E8F52AF3FE07C01AC080E292
:102EC00090E0B3010E94A618EA948E2D90E00817B6
:102ED0001907A8F30EC0F601F7FC8591F7FE819162
:102EE0006F0190E0B3010E94A618E110EA9401502E
:102EF00010400115110579F7EAC0943611F09936A2
:102F000069F5F7FE08C0F5012081318142815381C6
:102F100084E090E00AC0F501808191819C01442702
:102F200037FD4095542F82E090E0A80EB91E9FE631
:102F3000F92257FF09C050954095309521953F4F94
:102F40004F4F5F4FE0E8FE2ACA01B901A1012AE014
:102F500030E00E94D218D82ED21840C0953729F4FC
:102F60001F2D1F7E2AE030E01DC01F2D197F9F36C8
:102F700061F0903720F4983509F0ACC00FC090375D
:102F800039F0983709F0A6C004C028E030E00AC044
:102F9000106114FD146020E130E004C014FD1660DF
:102FA00020E132E017FF08C0F50160817181828164
:102FB000938144E050E008C0F50180819181BC011B
:102FC00080E090E042E050E0A40EB51EA1010E9416
:102FD000D218D82ED2188FE7F82EF122F6FE0BC0A9
:102FE0005EEFF522D91438F4F4FE07C0F2FC05C0F8
:102FF0008FEEF82202C01D2D01C0192DF4FE0DC068
:10300000FE01ED0DF11D8081803319F499EEF92256
:1030100008C01F5FF2FE05C003C08F2D867809F03F
:103020001F5F0F2DF3FC14C0F0FE0FC01E1510F033
:103030009D2C0BC09D2C9E0C911A1E2D06C080E26B
:1030400090E0B3010E94A6181F5F1E15C0F304C0D4
:103050001E1510F4E11A01C0EE2404FF0FC080E336
:1030600090E0B3010E94A61802FF1DC001FD03C03D
:1030700088E790E00EC088E590E00BC0802F86784E
:1030800091F001FF02C08BE201C080E2F7FC8DE20B
:1030900090E0B3010E94A61806C080E390E0B3015F
:1030A0000E94A6189A94D914C0F3DA94F101ED0D98
:1030B000F11D808190E0B3010E94A618DD20A9F7E0
:1030C00006C080E290E0B3010E94A618EA94EE20C8
:1030D000C1F743CEF30166817781CB012B96E2E104
:1030E0000C944C19DC01CB01FC01F999FECF06C010
:1030F000F2BDE1BDF89A319600B40D9241505040B6
:10310000B8F70895262FF999FECF1FBA92BD81BD59
:1031100020BD0FB6F894FA9AF99A0FBE0196089559
:10312000FC010590615070400110D8F78095909592
:103130008E0F9F1F0895FC01615070400190011097
:10314000D8F7809590958E0F9F1F08950F931F932A
:10315000CF93DF938C01EB018B8181FF1BC082FF3A
:103160000DC02E813F818C819D812817390764F421
:10317000E881F9810193F983E88306C0E885F98540
:10318000802F0995892B31F48E819F8101969F8331
:103190008E8302C00FEF1FEFC801DF91CF911F9107
:1031A0000F910895FA01AA27283051F1203181F1B9
:1031B000E8946F936E7F6E5F7F4F8F4F9F4FAF4F3F
:1031C000B1E03ED0B4E03CD0670F781F891F9A1F52
:1031D000A11D680F791F8A1F911DA11D6A0F711D06
:1031E000811D911DA11D20D009F468943F912AE012
:1031F000269F11243019305D3193DEF6CF010895FA
:10320000462F4770405D4193B3E00FD0C9F7F6CF2A
:10321000462F4F70405D4A3318F0495D31FD4052F2
:10322000419302D0A9F7EACFB4E0A6959795879588
:1032300077956795BA95C9F7009761057105089567
:103240009B01AC010A2E0694579547953795279513
:10325000BA95C9F7620F731F841F951FA01D0895AB
:103260002F923F924F925F926F927F928F929F9296
:10327000AF92BF92CF92DF92EF92FF920F931F9384
:10328000CF93DF93CDB7DEB7CA1BDB0B0FB6F89435
:10329000DEBF0FBECDBF09942A88398848885F8475
:1032A0006E847D848C849B84AA84B984C884DF80E6
:1032B000EE80FD800C811B81AA81B981CE0FD11DCA
:1032C0000FB6F894DEBF0FBECDBFED010895F894A0
:0232D000FFCF2E
:1032D200436865636B0054656D70657261747572E5
:1032E20065203D202564202A430D0A0003000000CA
:1032F20052656731005265673200FF49444C450010
:10330200019600C800FA002C015E019001C201F48E
:1033120001496E744D6174680051436F6E734E4281
:10332200005150726F644E4200434F4D5478004337
:063332004F4D527800002F
:00000001FF
